:1000000000308A002E2800000A108A100A11820788
:1000100021340034061586140430A800FA30A900F3
:100020002930840083130008031923280230F800C4
:10003000F701F70B1928F80B18289730F700F70B82
:100040001F28800B1628A80B0E28061186100A30D0
:10005000A6000030A7008A110A129C28840183138D
:100060001F308305713083168F000F0803170908AE
:10007000C039890003131F129F1200300317880034
:1000800083128701880189010313860100308316DA
:1000900086008312A101A3010A30A200A501A401D8
:1000A0000A30A6000030A700A00183160108C0395D
:1000B000073881003D30831281000B11831601083F
:1000C000C039073881003D30831281000B110310C5
:1000D000200DF7000420F900013077070420FA0012
:1000E0007908840083137A1883170008F900840ABA
:1000F0000008F700840A0008F800840A800A000853
:10010000FA00031D8628840A800A8403840A0008F2
:100110007802031D9E2877087A02031D9E28840317
:100120008001840A8001840AF91B9E28840A000841
:100130008A0084030008820083120313A00A01309E
:100140002002031D6728A00101080B1DA9288316A2
:0A0150006328A428FF30A00063001C
:04400E00C42CFF3F80
:00000001FF
;PIC16F887
;CRC=C04C  CREATED="01-dic.-21 10:04"
