:1000000000308A00412800000A108A100A11820775
:100010002134003428340034323084008313000843
:10002000031920280130F800F701F70B1528F80B09
:1000300014284A30F700F70B1B281E28800B1228C3
:10004000080006140430AF00FA30B2000C20AF0BE9
:10005000242806102130A6000030A7008A110A12B9
:10006000BA2886140430B100FA30B2000C20B10B6B
:10007000342886103130AD000030AE008A110A12EB
:10008000BA28840183131F308305613083168F00E3
:100090000F0803170908C039890003131F129F12A4
:1000A0000030031788008312870188018901031338
:1000B00086010030831686008312A101A30104305B
:1000C000A200A501A4012130A6000030A700A801CC
:1000D000AA010830A900AC010130AB003130AD00FD
:1000E0000030AE00A00183160108C0390638810037
:1000F0003D30831281000B1183160108C039063888
:1001000081003D30831281000B110310200DF70098
:100110000420F900013077070420FA0079088400F0
:1001200083137A1883170008F900840A0008F7007F
:10013000840A0008F800840A800A0008FA00031DF7
:10014000A428840A800A8403840A00087802031D14
:10015000BC2877087A02031DBC2884038001840A26
:100160008001840AF91BBC28840A00088A008403E1
:100170000008820083120313A00A02302002031D2C
:100180008528A00101080B1DC72883168128C228D5
:06019000FF30A000630037
:04400E00C42CFF3F80
:00000001FF
;PIC16F887
;CRC=A803  CREATED="01-dic.-21 09:30"
