:1000000000308A00362800000A108A100A11820780
:10001000213400342834003406140430AF00FA30A0
:10002000B000303084008313000803192428023004
:10003000F800F701F70B1A28F80B19289730F7008A
:10004000F70B2028800B1728AF0B0F2806100C3059
:10005000A6000030A7008A110A12AF2886142E309D
:10006000AD000030AE008A110A12AF28840183135C
:100070001F308305713083168F000F08031709089E
:10008000C039890003131F129F1200300317880024
:1000900083128701880189010313860100308316CA
:1000A00086008312A101A3010A30A200A501A401C8
:1000B0000C30A6000030A700A801AA010A30A90050
:1000C000AC010130AB002E30AD000030AE00A0011D
:1000D00083160108C039073881003D308312810042
:1000E0000B1183160108C039073881003D30831297
:1000F00081000B110310200DF7000420F9000130DE
:1001000077070420FA007908840083137A1883178C
:100110000008F900840A0008F700840A0008F800C3
:10012000840A800A0008FA00031D9928840A800ABC
:100130008403840A00087802031DB12877087A0234
:10014000031DB12884038001840A8001840AF91BFD
:10015000B128840A00088A00840300088200831200
:100160000313A00A02302002031D7A28A00101080F
:100170000B1DBC2883167628B728FF30A00063002B
:04400E00C42CFF3F80
:00000001FF
;PIC16F887
;CRC=6C08  CREATED="01-dic.-21 09:21"
