:1000000000308A00122800000A108A100A118207A4
:100010002134003406140A30A6000030A7008A11EB
:100020000A128028840183131F30830571308316E0
:100030008F000F0803170908C039890003131F1226
:100040009F120030031788008312870188018901FD
:10005000031386010030831686008312A101A301D9
:100060000A30A200A501A4010A30A6000030A700B2
:10007000A00183160108C039073881003D30831282
:1000800081000B1183160108C039073881003D300B
:10009000831281000B110310200DF7000420F900DA
:1000A000013077070420FA007908840083137A1856
:1000B00083170008F900840A0008F700840A000882
:1000C000F800840A800A0008FA00031D6A28840ADE
:1000D000800A8403840A00087802031D82287708B6
:1000E0007A02031D822884038001840A8001840A25
:1000F000F91B8228840A00088A0084030008820011
:1001000083120313A00A01302002031D4B28A00113
:1001100001080B1D8D28831647288828FF30A00072
:0201200063007A
:04400E00C42CFF3F80
:00000001FF
;PIC16F887
;CRC=BC7E  CREATED="01-dic.-21 09:09"
