:1000000000308A00442800000A108A100A11820772
:100010002134003428340034323084008313000843
:1000200003191F280230F800F701F70B1528F80B09
:1000300014289730F700F70B1B28800B12280800B4
:10004000061586140430AF00FA30B2000C20AF0B56
:100050002428061186102030A6000030A7008A113F
:100060000A12BD28061686150430B100FA30B20017
:100070000C20B10B3628061286113230AD0000304C
:10008000AE008A110A12BD28840183131F30830534
:10009000713083168F000F0803170908C0398900D3
:1000A00003131F129F120030031788008312870169
:1000B00088018901031386010030831686008312AC
:1000C000A101A3010A30A200A501A4012030A600CD
:1000D0000030A700A801AA011430A900AC0101302A
:1000E000AB003230AD000030AE00A0018316010835
:1000F000C039073881003D30831281000B1183160F
:100100000108C039073881003D30831281000B118E
:100110000310200DF7000420F900013077070420B8
:10012000FA007908840083137A1883170008F9000D
:10013000840A0008F700840A0008F800840A800A8C
:100140000008FA00031DA728840A800A8403840A91
:1001500000087802031DBF2877087A02031DBF2814
:1001600084038001840A8001840AF91BBF28840A61
:1001700000088A0084030008820083120313A00A87
:1001800002302002031D8828A00101080B1DCA2887
:0C01900083168428C528FF30A0006300FF
:04400E00C42CFF3F80
:00000001FF
;PIC16F887
;CRC=3629  CREATED="01-dic.-21 10:23"
